:020000040800F2
:100000007809002081340008C1340008912D0008CF
:10001000932D0008952D0008C5340008000000004D
:10002000000000000000000000000000C9340008CB
:10003000CD34000800000000D1340008972D0008DE
:10004000D5340008D9340008DD340008E134000854
:10005000E5340008E93400087F2F0008ED3400087B
:10006000F1340008F5340008F9340008FD340008C4
:100070000135000805350008093500080D35000870
:100080001135000815350008193500081D35000820
:100090002135000825350008293500082D350008D0
:1000A0003135000835350008393500083D35000880
:1000B000FD2D0008E12D00081D2E00084135000827
:1000C00045350008493500084D3500085135000810
:1000D000553500081F2F0008593500085D35000808
:1000E0006135000865350008693500086D35000880
:1000F0007135000875350008793500087D35000830
:100100008135000885350008C92E000889350008AA
:100110008D3500089135000895350008993500089F
:100120009D350008A1350008A5350008A93500084F
:100130002DE9F0439FB000BF65A6269CDFF8E88A52
:100140008DF83B40029100240B944FF0FF3704469A
:1001500091461D460AE019F8011B0298A0470028A5
:10016000029000F0A1800B98401C0B9099F80000C1
:1001700050B12528EFD10021002205910692079168
:10018000089209910A9203E00B98A5E041F0010161
:1001900019F8010F2028F9D023280CD02B2804D0DF
:1001A0002D2805D0302809D080E041F00201EFE78A
:1001B00041F00401ECE741F00801E9E741F01001EA
:1001C000E6E70D920AE00D98404505DA00EB800065
:1001D00002EB4002303A0D9209F1010999F8002032
:1001E000A2F130000A28EED399F800002E2818BF9B
:1001F0000C9726D119F8010F2A2808D12868286001
:1002000009F1010950F8042B28600C9219E02D28FF
:100210000CBF09F10109002000220C920BE040B94B
:100220000C9A424505DA02EB820203EB4203303BB3
:100230000C9309F1010999F80030A3F130020A2A60
:10024000EDD3ADF83810304699F8001000F0A0FE5C
:1002500008B119F8010B8DF83A009DF83A006828AA
:1002600005D199F8000068280CD1622106E06C28BD
:1002700004BF99F800006C2804D171218DF83A1060
:1002800009F1010910A804902A4619F8013B6946B2
:10029000204600F061F838B910AA6946204600F0FF
:1002A00091F900287FF562AF384615E02A2888D1F9
:1002B0002A682A6052F8040B2A6000280D9003D5A2
:1002C00040420D9041F0040109F101098CE7000062
:1002D000686A6C747A4C00001FB0BDE8F083622835
:1002E00020D0682811D06A2803D06C2827D0712824
:1002F00025D10868C01D20F007000860D0E9002360
:1003000008300860194610467047002A0A680A60DB
:10031000106803D0121D0A6000B217E0121D0A60B7
:1003200080B217E0002A0A680A60106803D0121D24
:100330000A6040B20AE0121D0A60C0B20AE0002A58
:100340000A680A60106803D0121D0A60C11770475E
:10035000121D0A600021704770B51C460D46B4F1AD
:1003600025002E69114600F01B811C386AD0001F41
:10037000022867D9133843D0093863D0801E16D0BD
:10038000401E1ED0401E02285CD9001F19D0401FFD
:1003900000F08380401E33D0401E00F0CD80C01E90
:1003A00000F0DC80801E2BD0C01E29D0FEE06869E2
:1003B000421C6A610A680A6052F8043B0A603354BE
:1003C000FEE095F83A000122FFF789FFC5E9000138
:1003D0000023994204DA6869411C69612D220DE00D
:1003E000288F810704D56869411C69612B2205E0CB
:1003F000C00722D56869411C6961202232541CE083
:1004000095F83A000022FFF76AFFC5E9000195F868
:100410003800010711D5D5E900230020834208BF29
:1004200082420AD044F02000782806D16869302141
:100430003154401C421C6A6134542146686930447E
:10044000E86087E00868C01D20F007000860D0E978
:10045000002308300860C5E90023D5E90001C80F72
:1004600004D06869411C69612D220DE0288F810745
:1004700004D56869411C69612B2205E0C00704D5D9
:100480006869411C69612022325468693044E8601F
:100490002146284600F0C8F992E005F13A0250786A
:1004A00020B14FF0FF340FF6502062E01078622840
:1004B00008D0682824D06A2812D06C282ED0712841
:1004C0000ED02BE00A680A6052F8040B0A6020B9CB
:1004D0004FF0FF340FF638204BE0E96A01706FE00F
:1004E0000A680A6052F8040B0A6020B94FF0FF3422
:1004F0000FF61C203DE0EA6AD317C0E900235FE055
:100500000A680A6052F8040B0A6020B94FF0FF3401
:100510000FF6FC102DE0E96A018051E00A680A60DC
:1005200052F8040B0A6020B94FF0FF340FF6E010C8
:100530001FE0E96A016043E00A680A6052F8040BB0
:100540000A60002120F0000221F0FF33C5E90023FA
:10055000EE607821284600F0BBF831E008680860BA
:1005600050F8044B0860EC603CB94FF0FF340FF6D4
:10057000B81000F01DFD201A70BD2E6B002E04D5A2
:10058000204600F035FD044608E0324600212046B2
:1005900000F04AFD002814BF041B3446AC610FE094
:1005A0006869411C69612522325409E06969481C67
:1005B000686125227254210002D0431C6B613454BF
:1005C000002070BD2DE9FC410F46064690467A6B2F
:1005D0007869396ABC6A121AB869521A796A121AA9
:1005E000F869521A121A97F83800141B41070FD4F1
:1005F0002020002C8DF800000ADD254601236A46E4
:100600003946304600F060FC00285DD16D1EF5D102
:100610007B6942463946304600F056FC002853D1EB
:1006200030208DF800003D6A002D09DD01236A4667
:100630003946304600F048FC002845D16D1EF5D102
:10064000BB69FA683946304600F03EFC00283BD1D1
:1006500030208DF800007D6A002D08DD01236A46F8
:100660003946304600F030FC70BB6D1EF6D1F8689C
:10067000B969FB6942183946304600F025FC18BBC1
:1006800030208DF80000BD6A002D08DD01236A4688
:100690003946304600F018FCB0B96D1EF6D197F817
:1006A000380041070DD52020002C8DF8000008DD12
:1006B00001236A463946304600F006FC20B9641E24
:1006C000F6D10020BDE8F6814FF0FF30BDE8F6819D
:1006D0002DE9FC4707468C463E69BCF16F0F08BF09
:1006E000082405D04CF02000782814BF0A241024D8
:1006F0003C25D7E90023BCF1640F18BFBCF1690F9A
:100700009046994606D100218B4203DAD8F10008C1
:1007100069EB49094FF0000AD14508BFD0451FD108
:10072000386BE8B9082C4BD197F83800010747D54A
:1007300030203B2586F83B0042E000280ED597F894
:10074000380000F01400102808D17B6B7969386AF2
:100750005B1A1B1A9A1A002AC8BF3A62BDE8F387CF
:100760008DF800C0404649462246E31700F088FC59
:100770003032D0B26D1E3A28019504DB9DF800009E
:10078000A0F151018A187255404649462246E317A6
:1007900000F076FC89468046D14508BFD04503D09D
:1007A000F86871198842DDD3082C09D197F8380010
:1007B000010705D5705D302802D06D1E30207055C0
:1007C000C5F13C02BA617119F960386B8242B4DA42
:1007D000821A3A624FF6EF70398F01403987BDE8CF
:1007E000F3872DE9D04306460F4614464FF0000824
:1007F000DFF8389412E0E00707D542464B46304612
:10080000394600F055FD06460F46404649464246E9
:100810004B4600F04DFD641080468946002CEAD11D
:1008200030463946BDE8D0832DE9F34F054641F007
:1008300020048DB0D5E90089612C02AE09D0286B67
:10084000002848BF062003D408BF672C01D101202F
:100850002863D5E9002358004015401C0ED1190328
:100860000CD00320A8619DF8381061391A2902D2F2
:100870000FF2D06111E00FF2D0610EE0590049157E
:10088000491C0FD118030DD10320A8619DF8381021
:1008900061391A2914D30FF2B861E868032200F015
:1008A000D9FDD3E1194621F00043B3F5801F10466E
:1008B0000DD20027BB4208BFBA42019703D111E015
:1008C0000FF28861E9E701AA00F018FE0AE0DFF8FC
:1008D000607307EB1352DFF85C3301921940DFF8C5
:1008E00058331943C5E90001612C0ED1E868302165
:1008F0000170821CEA609DF8381061290CBF7821D4
:10090000582141706869801C6861D5E900AB2BF003
:10091000004300202AF00002834204BF82420023E9
:1009200000F05B81612C40F0AA80286B002847BF53
:1009300021210091401C0090009F7F1C40464946A9
:100940000022002300F012FED94601998DF80820FC
:1009500038BF89F00049091F002FD04601910DF1E1
:10096000090040F34981B349DFF8D0B20C91064643
:10097000404649460022002300F010FE80F03B81F3
:100980004800400D00F11C0211D0002A0FDD40F29A
:10099000FF70824205DB09F0004040EA0B010020B5
:1009A00013E00C98014041EA025140460DE029F065
:1009B0000043002028F00002834208BF82420FBF9C
:1009C00040461C22404600F001FE8046894600F069
:1009D0009BFEFF1F002F044609DD00F0B3FE024618
:1009E0000B464046494600F0BFFE80468946F01D52
:1009F000072104E004F00F0200F8012D2411002C5F
:100A000001DD491EF6D5491E5CBF002200F8012D0C
:100A1000F9D5ECE00020194602AA0A4400E05B1E6A
:100A200012F80149491E8442F9D00F2804D10DF172
:100A30000900425C521C4254002904D50198001D53
:100A400002AE5B1C0190591E12D49DF8380072183A
:100A5000A0F13A07147804F130085FFA88F43A2CD0
:100A6000A8BFB844491E02F80189F3D58DF83800B3
:100A7000286B002840F1B080591E2963ACE0404645
:100A800049460022002300F071FD019938BF89F02A
:100A9000004947F297504143694A91FBF2F20192B3
:100AA000D2F1070204DD40464946FFF79AFE0AE00C
:100AB000524200206349FFF794FE02460B4640462F
:100AC000494600F0C3FE8046662C286BDFF878B1FB
:100AD00006BF019F0A3706273F18142FC8BF1427E7
:100AE00030208DF8080089460DF1090000E03046FD
:100AF000002F34DD06464046494600F0CBFF014654
:100B00000A4606F1080304200A26B2FBF6F606EBB5
:100B1000860EA2EB4E02303203F8012C0A22B6FBFD
:100B2000F2F202EB820EA6EB4E063036401E03F8C0
:100B3000026DE9D1083F002F03F10806D7DD084612
:100B400000F0BCFF02460B464046494600F00CFE52
:100B500000225B4600F0ACFB80468946CBE70DF1F6
:100B60000901401A0DF1090604E00199491E401ED1
:100B70000191761C31783029F7D0662C02D1019989
:100B8000491C03E0652C0CBF012100212B6BCB1805
:100B90009842B8BF431E002B1ED4834204DAF05C97
:100BA0003528A8BF392000DA30201946721E02EB22
:100BB000010800E05B1E18F80199491E8145F9D033
:100BC000392802D1705C401C7054002904D501986A
:100BD000401C16465B1C0190019800B200901BB2AD
:100BE0009DF838103246284600F034F82EE0C61D35
:100BF000002F3FF7BDAE30460DF10901401A0099B4
:100C000003468842C8BF0B46002B0DF109063FF58D
:100C10002FAF8342BFF6FEAE0DF10900C15C07297C
:100C20007FF7F8AE0F20F6E6CBCCCC0C00002440CA
:100C300002FCFFFFFFFF0F800000E03F0000F07F9D
:100C4000A08601000000F03F84D797410FB0BDE8B7
:100C5000F08F00002DE9F84783B006468A46174614
:100C6000984600F039FFB8F1000F406A356B90F8F4
:100C7000009002DC4FF00108B6A74AF02000BDF951
:100C80003040662808BF641C15D0672840F0848077
:100C900014F1040FC0F28680AC4280F2838096F893
:100CA0003800641C010702D4A845B8BF454620B2ED
:100CB0002D1A48BF00250FFA84FAF068B169BAF11D
:100CC000000F25DC4A1C30234354002D03DC96F82A
:100CD0003800010703D5F06800F80290521C15EBAC
:100CE0000A0FB8BF6C4220B2441941424445B8BF14
:100CF000A046B26171620FFA88F5F561F068B369D8
:100D00002A463946184400F0A5FB641BB462C4E0CF
:100D100022B29045084417DA4246394600F09AFB61
:100D2000B0694044B061AAEB0801002D716203DC98
:100D300096F838100A0705D5F16801F80090F069B7
:100D4000401CF061B562A8E0394600F083FBB06951
:100D5000002D5044A8EB040803DC96F838100A076D
:100D600003D5F16801F80090401CB0610FFA88F0DB
:100D70008542F368B069B8BFA8460FFA88F207EB5E
:100D80000A01184400F066FBB1690FFA88F00144CB
:100D9000B161281A706280E0BAF1610F14D14FF08E
:100DA000700A16E0A84504DA96F838100A0758BF0A
:100DB00045466D1E48BF0025BAF1670F14BF4FF0BE
:100DC000450A4FF0650A04E0BAF1410F08BF4FF041
:100DD000500AB169F368481CB061002D17F8012B67
:100DE0005A5403DC96F838100A071BD5F168431CE7
:100DF000B36101F80090002D14DDA8F101080FFA8D
:100E000088F039468542F768B8BFA8460FFA88F2DD
:100E1000F81800F01FFBB0690FFA88F108446D1A4A
:100E2000B0617562F068B1690844002C80F800A0D8
:100E300003D42B224270811C03E02D2141706442B7
:100E4000811C00206A460AE023460A2493FBF4F43E
:100E500004EB8405A3EB450302F8013B401C24B2DC
:100E6000002CF1DC012806DC4AF02002652A04BFD0
:100E7000302201F8012B48B9302001F8010B07E0BE
:100E8000401E1DF80030303301F8013B0028F7DC2C
:100E9000F268B0691044091AF16196F8380000F060
:100EA000140010280DD17269B169706A8A18F1694D
:100EB0008218B06A8A188218706B8242BCBF821A8C
:100EC000326204B0BDE8F087F8B505460E46174615
:100ED0001C46002074B117F8011BB068A847B06029
:100EE00030B1F06A401CF0620020641EF3D1F2BD04
:100EF0004FF0FF30F2BD00007072696E74665F7370
:100F00003A20256E20646973616C6C6F77656400AC
:100F10007072696E74663A2062616420256E206189
:100F20007267756D656E74007072696E74665F735A
:100F30003A2062616420257320617267756D656E69
:100F4000740000006E616E004E414E00696E6600D6
:100F5000494E4600300030B4002513E050F8042B11
:100F6000D30744BFA9F101039A18091F042942F8C5
:100F7000045BFAD213468C0744BF15809B1CC9073B
:100F800048BF1D7050F8041B0029E7D130BC7047E2
:100F90000278C9B28A421AB11CBF10F8012FF9E7D2
:100FA00018BF002070470268531C0360117070471F
:100FB00080B500B906A005490B681BB122220021AB
:100FC000984701E000F08CFD222002BD680100205E
:100FD000636F6E73747261696E742068616E646CA5
:100FE00065723A20626164206D65737361676500A4
:100FF00000F10103810704D010F8011B820781B1C1
:10100000FAD10268A2F10131914311F0803104BF9D
:1010100050F8042FF6E709BAB1FA81F100EBD100DC
:10102000401CC01A70470000C9B2830706D0521E88
:1010300022D310F8013B9942F7D11FE0083A13D3AD
:1010400002F1040241EA012141EA014150F8043B66
:10105000121F21BF4B40A3F1013C2CEA030C1CF0F2
:10106000803FF3D0C9B2001F083210F8013B521E76
:1010700028BF91EA030FF8D818BF0120401E70471F
:10108000BBBBE1B1B2F5803F80F07E80022A1ED961
:101090008C46B1FBF2F102FB11C31B0443EA10437F
:1010A000B3FBF2FC02FB1C3380B240EA0343B3FB08
:1010B000F2F002FB103240EA0C4000237047022A93
:1010C00005D98446B0FBF2F002FB10C270474AB16A
:1010D00005D100F0010249085FEA300070470022A4
:1010E0000023704700F000BD0B000200002100202B
:1010F0007047904271EB030CF6D3B3F5803F2FD2CB
:10110000F0B5B3FA83F7B1FA81F4A7F10F0E3D1BE6
:101110005340CEF1200602FA0EF2F3415340B5F1EE
:101120000F0746D80F3C2C444140C4F12006A04094
:10113000F1414140B1FBF3F603FB1611A2FB06455A
:10114000001BA94102D2761E8018594180EA010293
:1011500021FA0EF362FA0EF200215A403046F0BD39
:1011600030B4B1FBF3FC03FB1C11A2FB0C45001BCC
:10117000A94103D2ACF1010C8018594130BC0246A0
:101180000B46604600217047B2F1807F65D3F0B511
:10119000B2FA82F7B1FA81F4C7F10F063D1B22FAC9
:1011A00006F307F1110EF24120355A40B5F10F0751
:1011B000B8D94140C4F12006A040F1414140B1FB03
:1011C000F3FC03FB1C11A2FB0C45001BA94103D23D
:1011D000BCF1010C801859410F2F12D30F3FC903E6
:1011E00041EA5041B1FBF3F603FB1611A2FB0645A1
:1011F000D4EBC030A94102D2761E8018594146EA8C
:10120000CC3C07B34140C7F12006B840F141414012
:10121000B1FBF3F603FB1611A2FB0645001BA94127
:1012200002D2761E8018594180EA010221FA0EF39B
:10123000C7F1200462FA0EF20CFA07F05A402CFAB9
:1012400004F13043F0BD80EA010221FA0EF30021DF
:1012500062FA0EF260465A40F0BD8C46B1FBF2F1E4
:1012600002FB11C31B0243EA1063B3FBF2FC02FB57
:101270001C331B024CEA002043EA1063B3FBF2FC70
:1012800002FB1C331B024CEA002043EA1063B3FB51
:10129000F2FC02FB1C331B024CEA002043EA106301
:1012A000B3FBF2FC02FB1C324CEA00200023704727
:1012B000B0B581EA030C0CF0004C40F2FF7515EA62
:1012C00011541DBF15EA1357AC42AF4239E0E4197F
:1012D00023EA455343F48013C90241F0004141EA37
:1012E000505EC7021100A7FB020200284FF0000069
:1012F000EEFB01204FF00001E3FB072118BF42F095
:101300000102401800214941E3FB0E01A4F580646D
:101310000F0302D252004041494154F101046CDDF7
:10132000470872F1004250F1000051EB0451A1F561
:1013300080115CBF41EA0C01B0BD4CEA05510020B0
:10134000B0BD05EA1357AC4214BFAF4241E050EACA
:10135000410E1CBF52EA430E02E061460020B0BDC0
:1013600024423C441BD15FEA070EF6D0090302BFBA
:1013700001460020AEF1140EB1FA81F7AEEB07047E
:1013800001FA07FE0C37C7F1200100FA07F7C84041
:101390004EEA000E23EA455343F48013A2E733F0EC
:1013A0000043B3FA83F704BFB2FA82FE77440B3FDF
:1013B000E41BB7F1200E2FBF02FA0EF3BB40C7F1BA
:1013C000200E22FA0EFE38BF43EA0E03BA40641C18
:1013D00082E750EA410E14BF52EA430E6FF000015B
:1013E0004FF4001717EB430F8ABF194617EB410F55
:1013F000B5E74CEA05510020B0BDD4F10104B4F1C9
:1014000020070FDAC4F12007520828BF42F001027A
:1014100010FA07F501FA07F7E1BF2A43E040384325
:10142000E1400FE0352C98DCC7F1200452EA40027D
:1014300020FA07F218BF42F0010231FA07F0A1408A
:101440000A43002172F1004250F1000051EB0C01FF
:10145000B0BD000062B38B0708D0521E11F8013BEB
:1014600000F8013B00F024808B07F6D1830740F0A1
:10147000208000BF103A07D330B4B1E83810103ADA
:10148000A0E83810F9D230BC530724BFB1E80810E7
:10149000A0E8081044BF51F8043B40F8043BD207D1
:1014A00024BF31F8022B20F8022B44BF0B780370C5
:1014B0007047121F17D35B0009D151F8043B20F885
:1014C000023B1B0C121F20F8023BF6D20BE051F836
:1014D000043B00F8013B1B0A20F8023B1B0C121FC7
:1014E00000F8013BF3D238BF121D521E24BF11F881
:1014F000013B00F8013BF8D87047000010B51446D6
:1015000000F002F8226010BDC1F30A5343B14A0053
:1015100012F5001F28D2A3F2FE32A1EB0251704750
:1015200050EA410C20D001F0004C31EA0C01B1FA34
:1015300081F204BFB0FA80F3D2180B3AB2F1200363
:101540002CBF00FA03F1914041EA0C013EBFC2F109
:10155000200C20FA0CF319439040524240F2FD3324
:10156000D21A01EB03517047002270474FF4001C60
:101570001CEB410F94BF1CEB430F09E041EA030C45
:1015800050EA4C0C52EA0C0C03D2994208BF90422C
:10159000704714BF8B428242704700004FF4001C1A
:1015A0001CEB410F94BF1CEB430F09E041EA030C15
:1015B00050EA4C0C52EA0C0C03D28B4208BF824218
:1015C000704714BF9942904270470000124254D4B1
:1015D00040F2FF7C1CEA11530FD0634531D09B18B9
:1015E00063453CBF01EB0251704701F0004141EA05
:1015F0000C510020AFF30080704750EA410320D027
:1016000001F0004C91EA0C011CD0B1FA81F30B3BC4
:101610009A420DD9D21A994051EA0C01C3F1200C1B
:1016200020FA0CFC61449840531C40F2FF7CD7E741
:10163000914041EA0C01C2F1200C20FA0CF319434D
:1016400090407047B0FA80F31533202BE0D3202A66
:10165000EED3203A203B9A4209D9D21A00FA03F17C
:1016600041EA0C010020531C40F2FF7CB8E700FA6D
:1016700002F141EA0C0100207047524240F2FF7C27
:101680001CEA11530DD06345DBD0B2EB030C3CBF19
:10169000A1EB025170470CF1010221EA035141F420
:1016A000801150EA410CCCD001F0004C352A27DCE7
:1016B00030B481EA0C01B2F1200309DAC2F120034F
:1016C000044601FA03F5D0402843D1409C400CE089
:1016D000C3F12002450020FA03F418BF44F00104CE
:1016E00021FA03F091400C43002174F1004550F1C0
:1016F000000051EB0C01244230BC7FF47BAF7047FB
:101700006146002076E70000C1F30A5340F2FE3242
:101710009B1A14DDD3F120034FEAE17208DDC90200
:1017200041EA505141F00040D84080185040704785
:1017300003F2E13010B1D24382F000407047002044
:1017400070470000C11768B14840401AB0FA80F2F3
:101750009040D21CC907C2F5846241EA025202EBF2
:10176000D02140057047000070B44FF0004591EA69
:10177000030F40F1BB816B40841A71EB030603D267
:10178000001BB141121973414FF4001C1CEB410FB7
:1017900034BF7CEB430442E00C0DA4EB1356352E12
:1017A0004FDC45EAC323DB0A45EAC121C912B6F181
:1017B00020050DDD63FA05F6EB4086EA03051242CB
:1017C00018BF45F00105C01851F100010CD213E01B
:1017D00062FA06F5F2405540F3415A40B340F340F7
:1017E0005A408018594107D349085FEA30005FEA40
:1017F000350528BF45F0010501F58011420875F156
:10180000004250F1000041EB04514E0016F5001F5C
:1018100070BC38BF70470020090D090570471CEBEC
:10182000410F10D252EA43060BD0BCEB410F05D852
:101830000C0DAB43661E342EB6DD02E0AB438018C0
:10184000594170BC704770BC70470000F0B540F261
:10185000FF7581EA030C0CF0004C15EA11541DBF12
:1018600015EA1357AC42AF42E5E0BC41C1F31301A6
:10187000C3F31303801A994143F4801304D2641E06
:101880004000494180185941C90241EA5051B1FB19
:10189000F3F603FB1611A2FB0675D7EBC020A94196
:1018A00002D2761E80185941C90241EA5051B1FB5B
:1018B000F3FE03FB1E11A2FB0E75D7EBC020A9415E
:1018C00003D2AEF1010E80185941890241EA9051CC
:1018D000760546EA8E2EB1FBF3F603FB1611A2FB4A
:1018E0000675D7EB8020A94102D2761E8018594197
:1018F000C90241EA50514EEA060EB1FBF3F603FB72
:101900001611A2FB0675D7EBC020A94102D2761EA4
:1019100080185941C90241EA5051B1FBF3F703FB6A
:101920001711A2FB0735D3EBC020A94167F10007CF
:101930000CBF004247F0010766F3D5274FEA1E317E
:10194000B80814F5806412DDBD0775F1004250EB54
:101950000E5051EB045111F5801F5CBF41EA0C01A0
:10196000F0BD4CF07F6141F0E0410020F0BDBD07CB
:101970006D0840EA0E5041F48011D4F10104B4F135
:1019800020060ADAC4F120060200E04001FA06F35C
:10199000E1401843B24015430EE0342C13DCC6F18D
:1019A000200445EA40056D0820FA06F2154321FAA5
:1019B00006F0A1400D43002175F1004250F10000F6
:1019C00051EB0C01F0BD00205FEA0C01F0BDCFB976
:1019D00092185B41B3FA83F704BFB2FA82F6BF19DB
:1019E0000B3FB7F120062FBF02FA06F3BB40C7F149
:1019F000200622FA06F638BF3343BA401CB1E41978
:101A0000641E33E77F4231F00041B1FA81F404BF34
:101A1000B0FA80F6A4190B3CB4F120062FBF00FAEF
:101A200006F1A140C4F1200620FA06F638BF314382
:101A3000A0403C1B1AE7AC421ABF05EA1357AF425D
:101A400012E050EA41061CBF52EA4306BFE750EAE3
:101A50004107304661461CBF41EA0551F0BD52EADC
:101A6000430C08BFC143F0BD00204FF4001616EB35
:101A7000410F98BF16EB430F08BF16EB410F24BF71
:101A8000C14305E016EB430F0CBF61464CEA05511C
:101A9000F0BD0000400D491840EA81200CD2490DEC
:101AA000A1F58061491C40F0004005DBD1F11F0128
:101AB00054BFC840C017704700207047014648B166
:101AC000B0FA80F18840C91CC1F58461090501EBB9
:101AD000D0214005704700000048704718000020E2
:101AE000012000F0B9B8000070470000841A71EBC3
:101AF000030604D26E40001BB141121973414FF42A
:101B0000001C1CEB410F34BF7CEB430683E00C0D43
:101B1000A4EB1356362E00F37C80012E45EAC32336
:101B200041DC43EA525312BFD20292025B08240501
:101B300045EAC12141EA5051D2EBC020994125D458
:101B400007D1B0FA80F610FA06F162D000202036F4
:101B500008E0B1FA81F6B140C6F1200220FA02F2A3
:101B60001143B0404FEAF474B4EB465434F001062C
:101B70004FEA74040AD8D6F50016760D04F0004436
:101B8000F04061FA06F25040F1404840C00A40EA95
:101B9000415021F0004128BF5FEA500550F100009C
:101BA00044EBD12135E0DB0A45EAC121C90AB6F18F
:101BB00020050EDD42EA0242120CC5F1200603FAAE
:101BC00006F6EB4042EA06056D42984161F10001DC
:101BD0000DE062FA06F5F240554063FA06FC82EA2F
:101BE0000C02F3405A406D42904161EB030111F445
:101BF000801F05D1641E620502D06D00404149413D
:101C000021F48011430875F1004350F1000041EBCD
:101C1000045170BC70471CEB410F15D223F00043F8
:101C200052EA43060BD04FEA4C0CBCEB410F04D8F0
:101C30000C0D661E342EB7DDEBE7801A994150EA91
:101C4000410608BF0021E4E708BF1CEB430F28BF93
:101C50006FF00001DDE7000080B5AFF30080024ABD
:101C600011001820ABBEFBE72600020038B50400C7
:101C70002000C0B200F065FBDFF88C550021280081
:101C800000F004FDE4B2FF2C04D1DFF880050178F8
:101C9000491C0170DFF874050078032803D0012186
:101CA000280000F0F3FC31BD70B5DFF8646500205A
:101CB00000F055FB3070DFF85C55012000F04FFB61
:101CC0002870DFF85445032000F049FB2070002005
:101CD000DFF8381508703078032840F0888000203D
:101CE000DFF838150870287800282FD12078DFF821
:101CF000301508702078002805D02021DFF8240551
:101D000000F06EFD04E02021DFF8180500F06BFD07
:101D1000DFF814150878002809D10020DFF80C1529
:101D200008701021DFF8FC0400F05DFD06E064207F
:101D3000097890FBF1F0DFF8F41408700121DFF866
:101D4000F00400F0A3FC00F0E1F9AAE128780128F2
:101D500002D02878032811D1DFF8C84420212000C0
:101D600000F041FD1021200000F03DFD0021DFF8D2
:101D7000C00400F08BFC00F0C9F992E12878052836
:101D800002D02878062806D100F0C0F92078DFF8C4
:101D90009014087085E12878072802D02878082850
:101DA0001AD1DFF88414207808700878002809D147
:101DB0000020DFF8781408701021DFF8680400F0C4
:101DC00012FD06E06420097890FBF1F0DFF85C1466
:101DD000087000F09BF964E128787F2840F0618169
:101DE00000F09AF90020DFF84014087059E13078CB
:101DF000042840F089800120DFF82014087028783A
:101E000000281AD1207800280AD00821DFF814040D
:101E100000F0E6FC0121DFF8180400F037FC09E0CF
:101E20000821DFF8000400F0DEFC0021DFF80004E8
:101E300000F02CFC00F06AF933E1287801280CD17D
:101E40000821DFF8E00300F0CEFC0021DFF8E0031A
:101E500000F01CFC00F05AF923E12878032815D182
:101E6000DFF8C0430821200000F0BDFC0221200063
:101E700000F0B6FC0421200000F0B2FC0021DFF8E5
:101E8000B00300F003FC00F041F90AE128780228D1
:101E900006D12078DFF89413087000F037F900E1DC
:101EA0002878052804D100F03DF900F02FF9F8E07A
:101EB0002878062804D100F035F900F027F9F0E081
:101EC00028787E2807D12078C01F0521484380B29A
:101ED00000F044FDE5E028787F2840F0E28000F043
:101EE0001BF9DFF840530221280000F079FC04219F
:101EF000280000F075FCFF20207000F013F99620F8
:101F0000DFF828130870CCE030780B2840F09D8073
:101F10002878002816D12078012807D10221DFF87F
:101F2000040300F060FC00F0F1F8BAE0207800282B
:101F300040F0B7800221DFF8EC0200F051FC00F025
:101F4000E5F8AEE02878012815D12078012807D1DE
:101F50000421DFF8D00200F046FC00F0D7F8A0E042
:101F60002078002840F09D800421AE4800F038FC25
:101F700000F0CCF895E02878022804D100F0D2F8DF
:101F800000F0C4F88DE0287803280ED120780028CE
:101F900004D00821A34800F023FC03E00821A14855
:101FA00000F021FC00F0B2F87BE0287804280ED184
:101FB0002078002804D010219A4800F014FC03E097
:101FC0001021984800F00CFC00F0A0F869E0287897
:101FD000052811D12078924908702078002804D073
:101FE0002021904800F0FCFB03E020218D4800F008
:101FF000FAFB00F08BF854E0287806281DD12078F1
:1020000000280FD02078FF2809D020780B2806DB85
:1020100020780A380521484380B200F09FFCFF2059
:10202000207005E04FF47A7000F098FC6420207076
:1020300000F078F800F06AF833E028787F2830D193
:1020400000F06AF800F0BCF82BE0307802281BD1D1
:102050002878002825D12078012822D1714C4FF40E
:102060008041200000F0B2FB0500724EEDB24FF44B
:102070000041200000F0AAFB10EB45003060316801
:102080006D4800F017F80CE03078012809D1287865
:10209000002806D12078012803D168480168491C2E
:1020A000016000F03AF970BD644800687047634908
:1020B0000860704710B502000B00614C61492000B8
:1020C00000F08AFC2000FEF793FF010089B2200097
:1020D00000F08CF903215C4800F088F910BD4B48F2
:1020E0000078704753480068C0B270474B4800788A
:1020F00070474B48007870474C4800787047534809
:1021000090F90000704751490870704780B5002170
:102110004F48FFF7CFFF01BD80B502214C48FFF7C4
:10212000C9FF01BD10B53C490878002804D17FF0F3
:102130003100464A107016E00878642803D1322036
:10214000424A10700FE00878FF2804D17FF07E002B
:102150003E4A107007E091F900203E4890F90000D7
:10216000121A3A480270394A92F90000002826D023
:102170000878FF2803D100203649087002E008786B
:102180003449087092F90000012804DB0121254838
:1021900000F029FB03E00121224800F021FB2E4C36
:1021A0008021200000F01FFB0121200000F01BFB1C
:1021B00000202A4908800121294800F067FA10BD53
:1021C00010B5184C0221200000F00AFB0421200069
:1021D00000F006FBFF2010490870FFF7A3FF08215D
:1021E000200000F000FB1021200000F0FCFA20216C
:1021F000200000F0F8FA0021194800F047FA002109
:102200000B4800F043FA10BD000400406C010020B0
:102210006D0100206E0100206F010020730100207D
:1022200071010020001401407201002050000020C4
:102230000008004048010020903400084C010020B4
:1022400008010020B43400080000002074010020C0
:10225000703400087001002000180140240C004078
:10226000000C004010B586B0012144F2040000F0DB
:1022700029FC5648016851F0010101604FF40070DB
:10228000ADF8000018208DF8030003208DF802003F
:102290004F4C6946200000F039FA4FF48060ADF8E9
:1022A000000003208DF8020004208DF80300694629
:1022B000200000F02BFA5FF4E13002900020ADF82E
:1022C0000C000020ADF80E000020ADF8100000203A
:1022D000ADF814000C20ADF812003E4C02A920000D
:1022E00000F03CFC0121200000F09AFC012240F2A9
:1022F0002551200000F0A2FC25208DF804000020CC
:102300008DF8050000208DF8060001208DF80700EB
:1023100001A800F005FD06B010BD2F480021017096
:1023200006E000212D4A0378D1540178491C017040
:1023300001785029F5DB00210170704726490870AB
:10234000704725490A78502A07DA244A0B78D05476
:102350000878401C0870002000E0012070471F49E9
:1023600080B2085C7047F8B505001D4C20686428F1
:10237000FBD0184E40F2266700223900300000F0F2
:102380005DFC2068002805D18021300000F088FC29
:10239000002813D1134801684A1C0260124A5554A0
:1023A0000168642901D1002101602068401C20607F
:1023B00001223900300000F041FC05E0EDB22900B7
:1023C00089B2300000F064FCF1BD0000181002403A
:1023D000000801400038014076010020B8000020CC
:1023E000640100205C0100205400002038B5050085
:1023F0000C0004E02878FFF7B6FF6D1C641E002C6B
:10240000F8D131BD80B5DFF8C41288420AD101216C
:102410004FF4006000F072FB00214FF4006000F008
:102420006DFBDDE0B0F1804F08D10121012000F00B
:1024300073FB0021012000F06FFBD1E0DFF8901268
:10244000884208D10121022000F066FB0021022011
:1024500000F062FBC4E0DFF87C12884208D1012161
:10246000042000F059FB0021042000F055FBB7E0E8
:10247000DFF86412884208D10121082000F04CFBEB
:102480000021082000F048FBAAE0DFF85012884243
:1024900008D10121102000F03FFB0021102000F0A6
:1024A0003BFB9DE0DFF83812884208D10121202053
:1024B00000F032FB0021202000F02EFB90E0DFF83E
:1024C000241288420AD101214FF4005000F016FB7B
:1024D00000214FF4005000F011FB81E0DFF80812FA
:1024E00088420AD101215FF4002000F007FB00219F
:1024F0005FF4002000F002FB72E0DFF8F011884288
:102500000AD101215FF4801000F0F8FA00215FF495
:10251000801000F0F3FA63E0DFF8D41188420AD1AA
:1025200001215FF4001000F0E9FA00215FF40010CF
:1025300000F0E4FA54E0DFF8BC11884208D1012130
:10254000402000F0E9FA0021402000F0E5FA47E0E1
:10255000DFF8A411884208D10121802000F0DCFAC4
:102560000021802000F0D8FA3AE0DFF8901188428C
:102570000AD101214FF4807000F0CEFA00214FF40F
:10258000807000F0C9FA2BE0DFF8741188420AD19C
:1025900001215FF4803000F0B1FA00215FF4803057
:1025A00000F0ACFA1CE0DFF85C1188420AD101218E
:1025B0005FF4003000F0A2FA00215FF4003000F078
:1025C0009DFA0DE0DFF84011884209D101215FF446
:1025D000802000F093FA00215FF4802000F08EFA52
:1025E00001BD10B400220488DFF8E030984212D018
:1025F000DFF8F02090420ED0B0F1804F0BD0DFF822
:10260000D020904207D0DFF8CC20904203D0DFF8F2
:10261000C820904204D14FF68F7214404A88144368
:10262000DFF8B820904208D0DFF8B420904204D000
:102630004FF6FF421440CA88144304808A8882857A
:102640000A88028598420FD0DFF8982090420BD07C
:10265000DFF8AC20904207D0DFF8A820904203D0EA
:10266000DFF8A420904201D1097A018601218182FC
:1026700010BC70474FF6FF7181800021018000215E
:10268000C18000214180002101727047C9B2002938
:1026900004D0018851F00101018004E002884FF666
:1026A000FE710A4002807047D2B2002A03D08289AC
:1026B0001143818103E0828932EA010181817047FF
:1026C0008184704789B2C94301827047002C014060
:1026D0000004004000080040000C004000100040D2
:1026E0000014004000340140004C01400050014003
:1026F0000054014000180040001C00400020004031
:10270000004001400044014000480140F0B4002274
:1027100000220022002200220022CB7813F00F03B7
:10272000CA78D20601D58A7813430A78120620D0D7
:10273000066800241AE0CA78482A16D1A740076123
:1027400013E0012717FA04F50A882A40AA420CD19F
:10275000A2000F259540AE4313FA02F23243160051
:10276000CA78282AE7D1A7404761641C082CE8D31F
:1027700006600A88B2F5807F26DB4668002420E0E8
:10278000012714F1080517FA05F50A882A40AA421C
:1027900016D1A2000F259540AE4313FA02F2324340
:1027A0001600CA78282A04D114F1080217FA02F296
:1027B0004261CA78482A03D114F1080297400761A0
:1027C000641C082CDCD34660F0BC70470022806893
:1027D00089B2084201D0012000E00020C0B2704759
:1027E00089B20161704789B24161704710B400221B
:1027F0000F2311F00302D2B2920013FA02F20F4B30
:102800000C00E4B2A41053F8244034EA02020C0095
:10281000E4B2A41043F824200A00D2B2921053F874
:102820002240C0B211F00302D2B292009040204385
:10283000C9B2891043F8210010BC7047080001405C
:10284000010049B2002908D4012210F01F018A407A
:102850005A4940B2400941F820207047020052B264
:10286000002A04D40901564A40B2115407E0090174
:10287000544A40B210F00F00104400F8041C704796
:102880001FB50121022000F02BF96846FFF7F2FE88
:102890000020ADF8020040F2CF20ADF800004FF468
:1028A0007A70ADF80400484C69462000FFF799FEA5
:1028B000012201212000FFF7F7FE03211D20FFF771
:1028C000CDFF1D20FFF7BCFF1FBDE0B5012101209A
:1028D00000F006F96846FFF7CDFE0020ADF80200D3
:1028E00041F61F40ADF800006420ADF804006946D1
:1028F0005FF08040FFF775FE012201215FF080400C
:10290000FFF7D2FE03211C20FFF7A8FF1C20FFF7D2
:1029100097FF07BD1FB50121042000F0E1F86846CC
:10292000FFF7A8FE0020ADF8020048F69F40ADF882
:1029300000001320ADF80400244C69462000FFF786
:1029400050FE012201212000FFF7AEFE03211E20D0
:10295000FFF784FF1E20FFF773FF1FBD3EB5040085
:102960001B4D2800FFF74EFD0121082000F0B8F8AC
:102970006846FFF77FFE0020ADF8020048F69F4052
:10298000ADF80000ADF8044069462800FFF729FEC5
:10299000012201212800FFF787FE03213220FFF7E3
:1029A0005DFF3220FFF74CFF37BD0A490868002859
:1029B00002D00868401E08607047000000E100E097
:1029C00000E400E018ED00E00004004000080040D2
:1029D000000C0040580100200CB430B583B00A460A
:1029E00006A90291044600250194009502AB01A9B5
:1029F000084878441E30FDF79BFB019A15700028AB
:102A00004EBF04460198041B204603B030BC5DF85D
:102A10000CFB00BF93E5FFFF10B400210021002153
:102A20000021444A116811F00C01002904D0042946
:102A300005D0082906D01EE03F4901601DE03F494E
:102A400001601AE0136813F47013116811F48031F7
:102A50009B0C9B1C002903D139494B43036009E0BF
:102A60001168890303D534494B43036002E03349BD
:102A70004B43036001E030490160116811F0F0013F
:102A80000909304B595C0468CC404460116811F46A
:102A9000E061090A595C4468CC408460116811F413
:102AA0006051C90A595C4368CB40C360116811F496
:102AB0004041890B244A515CC268B2FBF1F10161CB
:102AC00010BC7047C9B2002904D020490A681043DD
:102AD000086004E01D490A6832EA00000860704797
:102AE000C9B2002904D01A490A681043086004E0FA
:102AF00017490A6832EA000008607047C9B2002925
:102B000004D014490A681043086004E011490A68B7
:102B100032EA000008607047C9B2002904D00E49AB
:102B20000A681043086004E00B490A6832EA0000B2
:102B3000086070470410024000127A000024F4007C
:102B400000093D000400002014000020181002407D
:102B50001C1002400C1002401010024078B585B0E5
:102B600005000C0000200020002000200020A0898B
:102B700000282E00298A4CF6FF700140E0880143AE
:102B80002982A9894EF6F3100140A28820890243C8
:102B9000608902431143A981A98A4FF6FF40014091
:102BA000A0890143A9826846FFF736FF1B48864289
:102BB00001D1039900E00299A889000406D51920E3
:102BC000414320684000B1FBF0F205E01920414389
:102BD00020688000B1FBF0F26420B2FBF0F1090143
:102BE0000B001B09642000FB1322A889000408D5F0
:102BF000D00032306422B0FBF2F010F00700014345
:102C000007E0100132306422B0FBF2F010F00F0048
:102C10000143298106B070BD00000000003801406A
:102C2000C9B2002904D0818951F40051818104E0A6
:102C300082894DF6FF710A408281704710B40023EB
:102C40000023002300230B0040F66A149BB2A3422A
:102C50000B00DBB25B09DBB289B211F01F0101246A
:102C600014FA01F1012B01D10C3004E0022B01D147
:102C7000103000E01430D2B2002A03D002681143B1
:102C8000016003E0026832EA0101016010BC704794
:102C9000C905C90D818070478088C005C00D704787
:102CA00000220A0092B2B2F5007F0088084201D0EB
:102CB000012000E00020C0B2704710B400220022C2
:102CC000002200220A0040F66A1392B29A420B00D8
:102CD000DBB25B09DBB20A0092B212F01F020124E0
:102CE00014FA02F2012B02D183891A4006E0022B6A
:102CF00002D1038A1A4001E0838A1A4089B2090A84
:102D000089B214FA01F100880140002A03D0002999
:102D100001D0012000E00020C0B210BC70470000CC
:102D2000002100210F23C17800291ED01449096811
:102D300011F4E061D1F5E061090AD1F10402CB4060
:102D4000417811FA02F281780B401A4312010D49C1
:102D50000378CA540121027812F01F0291400A4AF6
:102D60000078401142F8201009E00121027812F0A9
:102D70001F029140054A0078401142F82010704728
:102D80000CED00E000E400E000E100E080E100E0A4
:102D9000FEE7FEE7FEE780B5FFF707FE864801681D
:102DA000491C0160016841F28832914217D100212B
:102DB0000160FFF779F900280AD120217F48FFF749
:102DC00012FDFFF7FDF904217D48FFF773F906E0D6
:102DD00020217A48FFF704FD0020FFF768F901BDC4
:102DE00010B5784C01212000FFF76CFC0021200079
:102DF000FFF74CFC0020FFF7A1FA10BD80B50121C0
:102E00005FF08040FFF75EFC40216F48FFF7EBFC6E
:102E100000215FF08040FFF739FC01BD38B501218A
:102E20006A48FFF74FFC6A4801680A310160FFF702
:102E300063F9684CC0B2052148430A2190FBF1F0C8
:102E4000217888421ADBFFF751F900280CD1FFF7EF
:102E500049F9002803D0FFF745F9012804D11021D2
:102E60005D48FFF7C0FC23E05B4D02212800FFF71F
:102E7000B7FC04212800FFF7B3FC19E0FFF736F98F
:102E800000280CD1FFF72EF9002803D0FFF72AF90C
:102E9000012804D110215048FFF7A2FC08E04E4D54
:102EA00002212800FFF79FFC04212800FFF79BFC6C
:102EB0002078401C2070FFF71FF92178C0B28142B2
:102EC00001D30020207031BD10B5444C01212000F9
:102ED000FFF7F8FBFFF713F940B200F089F80100A3
:102EE00049B2332904DB401E40B2FFF70CF915E06C
:102EF000010049B201290DDA00212000FFF7C6FBCD
:102F00002E4C80212000FFF76BFC01212000FFF7F1
:102F100067FC03E0401F40B2FFF7F5F810BD38B57D
:102F20002F4C2088800605D52000FFF7B5FEC0B2E3
:102F3000FEF79CFE40F2266529002000FFF7BDFE4B
:102F400001281BD127490868002812D00868401EB4
:102F50000860254D2868411C29602449095C89B214
:102F60002000FFF795FE2868642807D1002028601C
:102F700004E0002229002000FFF760FE31BD80B58B
:102F8000012000F075F8002814D040210E48FFF70A
:102F900027FCFFF7AEF8C0B2010089B25FF08040B5
:102FA000FFF78EFB01215FF08040FFF76FFB0120F0
:102FB00000F06EF801BD000054010020001801402F
:102FC0009C34000800040040000801400008004054
:102FD000500100207501002000140140000C004049
:102FE00000380140640100206001002054000020EE
:102FF000002848BF4042704730B40021264A1300E1
:10300000817900292CD0244C256801688D432560E6
:10301000224C256801688D4325600179CB181C6816
:1030200001680C431C601E4B1C6801688C431C60CB
:103030001C4C256801688D4325604179102908D111
:103040001A6801680A431A60216800680143216018
:103050000CE041798A18116800680143116005E0AD
:103060000179CB18196800688143196030BC70473A
:10307000002100210849096801400B4A12680242F8
:1030800003D0002901D0012000E00020C0B2704729
:103090000549086070470000000401400404014035
:1030A000080401400C04014014040140010049B22D
:1030B000002908D4012210F01F018A40474940B27C
:1030C000400941F820207047020052B2002A04D47F
:1030D0000901434A40B2115407E00901414A40B294
:1030E00010F00F00104400F8041C70473EB5012199
:1030F0006C20FFF7E7FC4020ADF8000003208DF8BE
:10310000020010208DF8030069463748FFF7FEFAE9
:10311000A120ADF8000003208DF8020010208DF8EA
:103120000300324C69462000FFF7F0FA3F20ADF86B
:10313000000003208DF8020010208DF803002C4DB4
:1031400069462800FFF7E2FA01212800FFF748FB53
:1031500080212000FFF747FB02212800FFF740FBFA
:1031600004212800FFF73CFB4FF44040ADF800007D
:1031700003208DF8020004208DF803006946280022
:10318000FFF7C4FA0120ADF8000003208DF802001B
:1031900004208DF8030069461648FFF7B7FA0121AD
:1031A0000120FFF78FFC00210620FFF78DFF06208E
:1031B000FFF77CFF00210120FFF718FB01200190A1
:1031C00001208DF80A0000208DF8080008208DF8F5
:1031D000090001A8FFF710FF37BD000000E100E083
:1031E00000E400E018ED00E0000801400018014094
:1031F00000140140000C014080B53E49086850F0C1
:10320000010008603C4A13683C48034013600B68A7
:103210003B4803400B60086830F480200860106869
:1032200030F4FE0010605FF41F003649086000F0C3
:1032300005F85FF000603449086001BD80B500F01A
:1032400001F801BD82B000200190002000902949C2
:10325000086850F480300860086810F4003000906E
:103260000198401C01900098002803D10198B0F506
:10327000A06FF1D10868800302D50120009001E021
:10328000002000900098012831D12048026852F0B7
:10329000100202600268920892000260026852F016
:1032A000020202601448026802600268026002685A
:1032B00052F480620260026832F47C12026002689A
:1032C00052F4F81202600A6852F080720A600A68CA
:1032D0009201FCD50168890889000160016851F0FC
:1032E00002010160016811F00C010829FAD102B055
:1032F0007047000000100240041002400000FFF878
:10330000FFFFF6FE0810024008ED00E0002002403A
:10331000020052B2002A04D40901124A40B21154E8
:1033200007E00901104A40B210F00F00104400F805
:10333000041C704780B5411EB1F1807F01D301208C
:103340000EE0401E094908600F215FF0FF30FFF7D3
:10335000DFFF0020064908600720064908600020BA
:1033600002BD000000E400E018ED00E014E000E021
:1033700018E000E010E000E000B585B0FFF7B6FE11
:10338000FEF770FFFFF77CFAFFF79FFAFFF7C2FA2C
:103390004FF49670FFF7E2FA6846FFF73DFB01989D
:1033A0004FF47A71B0FBF1F0FFF7C4FFFEF797FE20
:1033B0000328FBD1FEF778FCF8E730B50168846894
:1033C0004218416802EB5103C9070BD54C4409E090
:1033D00012F9011B12F8015B002904F8015B05D505
:1033E000491CF9D19A42F3D10C3030BD491EF1D5B8
:1033F000F8E7000010B5074979441831064C7C44C1
:10340000163404E00A68081D114488470146A142A9
:10341000F8D110BD08000000240000003BDBFFFFD6
:103420002401000054000020000000008FFFFFFF77
:103430007C0100008C0000000000002000F00DF86E
:10344000002801D0FFF7D6FFAFF300800020AFF3D4
:103450000080FFF791FF00F002F80120704700F0B4
:1034600001B8000007463846FEF7F6FBFBE7000010
:103470007472616E737053746174652E76616C0042
:103480000148804701480047F9310008A934000885
:103490006D6F64652E76616C000000006D6F646571
:1034A0002E76616C00000000AFF30080AFF3008067
:1034B000FFF7C4FF25733D256400000000002E00C7
:1034C000FFF7FEBFFFF7FEBFFFF7FEBFFFF7FEBF30
:1034D000FFF7FEBFFFF7FEBFFFF7FEBFFFF7FEBF20
:1034E000FFF7FEBFFFF7FEBFFFF7FEBFFFF7FEBF10
:1034F000FFF7FEBFFFF7FEBFFFF7FEBFFFF7FEBF00
:10350000FFF7FEBFFFF7FEBFFFF7FEBFFFF7FEBFEF
:10351000FFF7FEBFFFF7FEBFFFF7FEBFFFF7FEBFDF
:10352000FFF7FEBFFFF7FEBFFFF7FEBFFFF7FEBFCF
:10353000FFF7FEBFFFF7FEBFFFF7FEBFFFF7FEBFBF
:10354000FFF7FEBFFFF7FEBFFFF7FEBFFFF7FEBFAF
:10355000FFF7FEBFFFF7FEBFFFF7FEBFFFF7FEBF9F
:10356000FFF7FEBFFFF7FEBFFFF7FEBFFFF7FEBF8F
:10357000FFF7FEBFFFF7FEBFFFF7FEBFFFF7FEBF7F
:10358000FFF7FEBFFFF7FEBFFFF7FEBFFFF7FEBF6F
:10359000FFF7FEBFFFF7FEBFFFF7FEBFFFF7FEBF5F
:1035A000FFF7FEBFFFF7FEBFFFF7FEBFFDFFFB000B
:1035B0002B010203040102030406070809020406A2
:1035C00008BC340008BC340008BC340008BC34001B
:1035D00008BC340008BC340008BC340008F8FF0BF9
:1035E000BE340008BC340008BC340008FAFF0200F6
:0235F000009643
:04000005080034A912
:00000001FF
